:100000000C945D000C942E020C9407020C94850055
:100010000C9485000C9485000C9485000C9485004C
:100020000C9485000C9485000C9485000C9485003C
:100030000C9485000C9485000C9485000C9485002C
:100040000C94BD010C9485000C947B020C94550219
:100050000C9485000C9485000C9485000C9485000C
:100060000C9485000C9485000000000024002700FB
:100070002A0000000000250028002B0004040404CE
:100080000404040402020202020203030303030342
:10009000010204081020408001020408102001021F
:1000A00004081020000000080002010000030407FB
:1000B00000000000000000001A0411241FBECFEF52
:1000C000D8E0DEBFCDBF11E0A0E0B1E0ECEEF8E09B
:1000D00002C005900D92AA31B107D9F721E0AAE13B
:1000E000B1E001C01D92A33CB207E1F710E0CDE5FD
:1000F000D0E004C02197FE010E946904CC35D107ED
:10010000C9F70E94AD020C9474040C940000089589
:10011000CF92DF92EF92FF920F931F93CF93DF93D3
:100120006C017A018B01C0E0D0E0CE15DF0581F0D3
:10013000D8016D918D01D601ED91FC910190F08176
:10014000E02DC6010995892B11F02196EECF7E0195
:10015000C701DF91CF911F910F91FF90EF90DF903A
:10016000CF90089580911B0190911C01019690936E
:100170001C0180931B0190911A0181E0911180E094
:1001800080931A010895089580E090E00895FC019D
:10019000538D448D252F30E0842F90E0821B930BEC
:1001A000541710F0CF96089501970895FC01918D92
:1001B000828D981761F0828DDF01A80FB11D5D96C9
:1001C0008C91928D9F5F9F73928F90E008958FEF37
:1001D0009FEF0895FC01918D828D981731F0828DEB
:1001E000E80FF11D858D90E008958FEF9FEF089542
:1001F000FC01918D228D892F90E0805C9F4F821BA6
:1002000091098F739927089586E291E00E94F80082
:1002100021E0892B09F420E0822F0895FC01848DD0
:10022000DF01A80FB11DA35ABF4F2C91848D90E020
:1002300001968F739927848FA689B7892C93A089FB
:10024000B1898C91837080648C93938D848D981385
:1002500006C00288F389E02D80818F7D8083089518
:10026000EF92FF920F931F93CF93DF93EC0181E006
:10027000888F9B8D8C8D981305C0E889F9898081C2
:1002800085FD26C0F62E0B8D10E00F5F1F4F0F73FC
:100290001127E02E8C8DE8120CC00FB607FCFACFA8
:1002A000E889F989808185FFF5CFCE010E940E0192
:1002B000F1CF8B8DFE01E80FF11DE35AFF4FF08265
:1002C0009FB7F8940B8FEA89FB89808180620AC00E
:1002D0009FB7F894EE89FF896083E889F989808166
:1002E0008370806480839FBF81E090E0DF91CF9135
:1002F0001F910F91FF90EF900895CF93DF93EC0142
:10030000888D8823C9F0EA89FB89808185FD05C035
:10031000A889B9898C9186FD0FC00FB607FCF5CF6F
:10032000808185FFF2CFA889B9898C9185FFEDCFB7
:10033000CE010E940E01E7CFDF91CF91089580E0BA
:1003400090E0892B29F00E94040181110C94000097
:100350000895009769F0FC0101900020E9F73197BA
:10036000AF01481B590BBC0186E291E00C94880058
:1003700080E090E008950E946F041F920F920FB6E4
:100380000F9211242F933F938F939F93AF93BF931B
:100390008091220190912301A0912401B091250127
:1003A0003091210123E0230F2D3720F40196A11D68
:1003B000B11D05C026E8230F0296A11DB11D209393
:1003C00021018093220190932301A0932401B093F3
:1003D000250180911D0190911E01A0911F01B091F6
:1003E00020010196A11DB11D80931D0190931E0156
:1003F000A0931F01B0932001BF91AF919F918F9166
:100400003F912F910F900FBE0F901F9018951F9244
:100410000F920FB60F9211242F933F934F935F9338
:100420006F937F938F939F93AF93BF93EF93FF93BC
:10043000E0910201F09103010995FF91EF91BF91C5
:10044000AF919F918F917F916F915F914F913F916C
:100450002F910F900FBE0F901F9018951F920F9223
:100460000FB60F9211242F933F934F935F936F9387
:100470007F938F939F93AF93BF93EF93FF93E091FD
:100480000001F09101010995FF91EF91BF91AF91AA
:100490009F918F917F916F915F914F913F912F919C
:1004A0000F900FBE0F901F9018951F920F920FB6CE
:1004B0000F9211242F933F934F935F936F937F93EA
:1004C0008F939F93AF93BF93EF93FF9386E291E057
:1004D0000E940E01FF91EF91BF91AF919F918F917B
:1004E0007F916F915F914F913F912F910F900FBE30
:1004F0000F901F9018951F920F920FB60F92112414
:100500002F938F939F93EF93FF93E0913601F09198
:1005100037018081E0913C01F0913D0182FD12C0E4
:10052000908180913F018F5F8F73209140018217EE
:1005300051F0E0913F01F0E0EA5DFE4F958F80932E
:100540003F0101C08081FF91EF919F918F912F9189
:100550000F900FBE0F901F901895CF93DF93CDB7DC
:10056000DEB7A1970FB6F894DEBF0FBECDBF78946B
:1005700084B5826084BD84B5816084BD85B58260A8
:1005800085BD85B5816085BD80916E008160809359
:100590006E001092810080918100826080938100C2
:1005A00080918100816080938100809180008160D2
:1005B000809380008091B10084608093B10080912D
:1005C000B00081608093B00080917A008460809355
:1005D0007A0080917A00826080937A0080917A001C
:1005E000816080937A0080917A00806880937A009D
:1005F0001092C100E0913601F091370182E08083D2
:10060000E0913201F09133011082E0913401F091D8
:1006100035018FEC808310923E01E0913A01F09118
:100620003B0186E08083E0913801F09139018081BF
:1006300080618083E0913801F09139018081886088
:100640008083E0913801F091390180818068808356
:10065000E0913801F091390180818F7D8083E3E959
:10066000F0E02491EFE7F0E084918823C9F090E076
:10067000880F991FFC01E859FF4F45915491FC01E7
:10068000EE58FF4FA591B4919FB7F894FA0180817D
:10069000322F309583238083EC91E22BEC939FBF24
:1006A00044E9E42E40E0F42EF701249150E8C52EF1
:1006B00050E0D52EF6018491882399F090E0880FC0
:1006C000991FFC01E859FF4FA591B491FC01EE5828
:1006D000FF4F859194919FB7F8948C91822B8C93C6
:1006E0009FBF82EB90E09093030180930201809181
:1006F00069008C6080936900E99A9AE0492E512C38
:10070000612C712C28EA222E20E0322E20911B0130
:1007100030911C014901330FAA08BB08B7FE20C065
:100720006DE286E291E00E94300122273327A90181
:10073000281939094A095B0919A28E010F5D1F4F5B
:10074000CA01B901A30192010E944704605DF8014A
:1007500062938F01211531054105510589F715C0B7
:10076000A501940119A28E010F5D1F4FCA01B901A5
:10077000A30192010E944704605DF80162938F011A
:10078000211531054105510589F7C8010E94A901CC
:1007900042E050E066E171E086E291E00E9488006C
:1007A00020911A01F1018491F7019491F60134919D
:1007B000332309F43CC0882339F1833091F038F4B5
:1007C0008130A9F0823001F584B58F7D12C0873069
:1007D00091F08830A1F08430B9F4809180008F7D51
:1007E00003C0809180008F77809380000DC084B516
:1007F0008F7784BD09C08091B0008F7703C080914E
:10080000B0008F7D8093B000E32FF0E0EE0FFF1F6C
:10081000EE58FF4FA591B4913FB7F8948C912111F8
:1008200003C09095982301C0982B9C933FBF0E94D2
:100830009F016CCFE6E2F1E01382128288EE93E032
:10084000A0E0B0E084839583A683B78388E091E03D
:100850009183808385EC90E09587848784EC90E099
:100860009787868780EC90E0918B808B81EC90E07D
:10087000938B828B82EC90E0958B848B86EC90E05E
:10088000978B868B118E128E138E148E0895A1E293
:100890001A2EAA1BBB1BFD010DC0AA1FBB1FEE1FFA
:1008A000FF1FA217B307E407F50720F0A21BB30B45
:1008B000E40BF50B661F771F881F991F1A9469F7C1
:1008C00060957095809590959B01AC01BD01CF011D
:1008D0000895EE0FFF1F0590F491E02D099481E03B
:0C08E00090E0F8940C947404F894FFCF9E
:1008EC00870087000000000030018800C7007D01F0
:0A08FC00F800D600EA000D0A000023
:00000001FF
