:100000000C945C000C94F5000C94CE000C947900D8
:100010000C9479000C9479000C9479000C9479007C
:100020000C9479000C9479000C9479000C9479006C
:100030000C9479000C9479000C9479000C9479005C
:100040000C9484000C9479000C9479000C94790041
:100050000C9479000C9479000C9479000C9479003C
:100060000C9479000C947900000000002400270013
:100070002A0000000000250028002B0004040404CE
:100080000404040402020202020203030303030342
:10009000010204081020408001020408102001021F
:1000A00004081020000000080002010000030407FB
:1000B000000000000000000011241FBECFEFD8E0B8
:1000C000DEBFCDBF11E0A0E0B1E0E4E0F4E002C0AB
:1000D00005900D92A430B107D9F721E0A4E0B1E07A
:1000E00001C01D92AE30B207E1F70E941C010C94D2
:1000F00000020C94000008959091040181E0911198
:1001000080E08093040108951F920F920FB60F9222
:1001100011242F933F938F939F93AF93BF9380911D
:100120000A0190910B01A0910C01B0910D01309149
:10013000090123E0230F2D3720F40196A11DB11DE5
:1001400005C026E8230F0296A11DB11D20930901C9
:1001500080930A0190930B01A0930C01B0930D01C1
:100160008091050190910601A0910701B0910801CD
:100170000196A11DB11D8093050190930601A093E6
:100180000701B0930801BF91AF919F918F913F916B
:100190002F910F900FBE0F901F9018951F920F92E6
:1001A0000FB60F9211242F933F934F935F936F934A
:1001B0007F938F939F93AF93BF93EF93FF93E091C0
:1001C0000201F09103010995FF91EF91BF91AF9169
:1001D0009F918F917F916F915F914F913F912F915F
:1001E0000F900FBE0F901F9018951F920F920FB691
:1001F0000F9211242F933F934F935F936F937F93AD
:100200008F939F93AF93BF93EF93FF93E091000180
:10021000F09101010995FF91EF91BF91AF919F91ED
:100220008F917F916F915F914F913F912F910F909F
:100230000FBE0F901F901895789484B5826084BD8E
:1002400084B5816084BD85B5826085BD85B58160DA
:1002500085BD80916E00816080936E001092810058
:100260008091810082608093810080918100816013
:1002700080938100809180008160809380008091D4
:10028000B10084608093B1008091B0008160809360
:10029000B00080917A00846080937A0080917A0027
:1002A000826080937A0080917A00816080937A00E6
:1002B00080917A00806880937A001092C100C4E92E
:1002C000D0E0FE01249100E810E0F8018491882339
:1002D00099F090E0880F991FFC01E859FF4FA59114
:1002E000B491FC01EE58FF4F859194919FB7F8941B
:1002F0008C91822B8C939FBFE3E9F0E02491EFE790
:10030000F0E084918823C9F090E0880F991FFC01E8
:10031000E859FF4FA591B491FC01EE58FF4F45916C
:1003200054919FB7F8948C91322F309583238C93FE
:10033000DA01EC912E2B2C939FBF8CE790E09093E9
:1003400003018093020180916900837F8460809320
:100350006900E99A98EAE92E90E0F92E20E0C22E91
:1003600020E0D22E20910401F7018491FE019491A6
:10037000F8013491332309F43CC0882339F18330E8
:1003800091F038F48130A9F0823001F584B58F7D89
:1003900012C0873091F08830A1F08430B9F4809198
:1003A00080008F7D03C0809180008F7780938000D4
:1003B0000DC084B58F7784BD09C08091B0008F7760
:1003C00003C08091B0008F7D8093B000E32FF0E0F8
:1003D000EE0FFF1FEE58FF4FA591B4913FB7F89471
:1003E0008C91211103C09095982301C0982B9C9368
:1003F0003FBFC114D10409F4B5CF0E940000B2CFB1
:04040000F894FFCF9E
:040404007B007B00FE
:00000001FF
