:100000000C945D000C9485000C9485000C94850084
:100010000C9485000C9485000C9485000C9485004C
:100020000C9485000C9485000C9485000C9485003C
:100030000C9485000C9485000C9485000C9485002C
:100040000C9426040C9485000C9496040C94700473
:100050000C9485000C9485000C9485000C9485000C
:100060000C94C8040C9485000000000800020100F4
:100070000003040700000000000000000000000072
:10008000250028002B0000000000240027002A0083
:10009000040404040404040402020202020203032E
:1000A0000303030301020408102040800102040836
:1000B0001020010204081020F60511241FBECFEF06
:1000C000D8E0DEBFCDBF11E0A0E0B1E0E8E9F0E1AB
:1000D00002C005900D92A433B107D9F722E0A4E342
:1000E000B1E001C01D92A63AB207E1F710E0CDE5FC
:1000F000D0E004C02197FE010E943F08CC35D10713
:10010000C9F70E943E060C944A080C940000E9EAE4
:10011000F0E02491E5E9F0E08491882399F090E003
:10012000880F991FFC01EA57FF4FA591B491FC017C
:10013000E458FF4F859194918FB7F894EC91E22B9E
:10014000EC938FBF089583E480937C0080917A00C4
:10015000806480937A0080917A0086FDFCCF809144
:1001600078002091790090E0922B089590E0FC01B6
:10017000E859FF4F2491FC01EC55FF4F3491FC01ED
:10018000E057FF4FE491EE2309F43CC0222339F1FC
:10019000233091F038F42130A9F0223001F584B5F4
:1001A0008F7D12C0273091F02830A1F02430B9F4AF
:1001B000809180008F7D03C0809180008F77809335
:1001C00080000DC084B58F7784BD09C08091B000D8
:1001D0008F7703C08091B0008F7D8093B000F0E0F6
:1001E000EE0FFF1FE458FF4FA591B4919FB7F8940D
:1001F000611104C08C913095382302C0EC913E2BE4
:100200003C939FBF08953FB7F8948091ED01909182
:10021000EE01A091EF01B091F00126B5A89B05C0B9
:100220002F3F19F00196A11DB11D3FBFBA2FA92F75
:10023000982F8827820F911DA11DB11DBC01CD01F2
:1002400042E0660F771F881F991F4A95D1F70895DE
:100250008F929F92AF92BF92CF92DF92EF92FF92D6
:100260006B017C010E9403014B015C01C114D104AC
:10027000E104F104F1F00E940301DC01CB018819D3
:100280009909AA09BB09883E9340A105B10570F3FD
:1002900021E0C21AD108E108F10888EE880E83E057
:1002A000981EA11CB11CC114D104E104F10419F77A
:1002B000DDCFFF90EF90DF90CF90BF90AF909F90F9
:1002C0008F900895CF92DF92EF92FF920F931F933A
:1002D000CF93DF936C017A018B01C0E0D0E0CE15A3
:1002E000DF0581F0D8016D918D01D601ED91FC9172
:1002F0000190F081E02DC6010995892B11F021961E
:10030000EECF7E01C701DF91CF911F910F91FF903A
:10031000EF90DF90CF90089508950895FC01538DDC
:10032000448D252F30E0842F90E0821B930B5417CF
:1003300010F0CF96089501970895FC01918D828D5C
:10034000981761F0828DDF01A80FB11D5D968C9129
:10035000928D9F5F9F73928F90E008958FEF9FEF34
:100360000895FC01918D828D981731F0828DE80FF0
:10037000F11D858D90E008958FEF9FEF0895FC01AA
:10038000918D228D892F90E0805C9F4F821B910977
:100390008F739927089581EF91E00E94BF0121E0BA
:1003A000892B09F420E0822F0895FC01848DDF0160
:1003B000A80FB11DA35ABF4F2C91848D90E00196D8
:1003C0008F739927848FA689B7892C93A089B189C7
:1003D0008C91837080648C93938D848D981306C068
:1003E0000288F389E02D80818F7D80830895EF92CC
:1003F000FF920F931F93CF93DF93EC0181E0888FDF
:100400009B8D8C8D981305C0E889F989808185FDC5
:1004100026C0F62E0B8D10E00F5F1F4F0F731127B4
:10042000E02E8C8DE8120CC00FB607FCFACFE889DD
:10043000F989808185FFF5CFCE010E94D501F1CFEA
:100440008B8DFE01E80FF11DE35AFF4FF0829FB73D
:10045000F8940B8FEA89FB89808180620AC09FB77C
:10046000F894EE89FF896083E889F9898081837037
:10047000806480839FBF81E090E0DF91CF911F91E6
:100480000F91FF90EF900895CF93DF93EC01888D4B
:100490008823C9F0EA89FB89808185FD05C0A88988
:1004A000B9898C9186FD0FC00FB607FCF5CF80810E
:1004B00085FFF2CFA889B9898C9185FFEDCFCE0158
:1004C0000E94D501E7CFDF91CF91089580E090E0C1
:1004D000892B29F00E94CB0181110C940000089512
:1004E00085ED8093BC008091BC0084FDFCCF109210
:1004F000E301089540919601262F30E0240F311D2D
:1005000021323105DCF42091E3012430C9F4FC01EF
:1005100080E090E0861758F4309196012191DC013B
:10052000AA58BE4FA30FB11D2C930196F3CF809113
:100530009601680F6093960180E0089581E0089528
:1005400082E008950895E091E7018091E601E817BF
:1005500030F4F0E0EA5AFE4F808190E008958FEF8A
:100560009FEF08959091E7018091E601981750F46C
:10057000E92FF0E0EA5AFE4F208130E09F5F909330
:10058000E70102C02FEF3FEFC90108958091E60116
:1005900090E02091E701821B91090895CF92DF92AC
:1005A000EF92FF920F931F93CF93DF937C01CB01C8
:1005B0008A0120915501222389F0EB016B01C40EC1
:1005C000D51ECC15DD0569F06991D701ED91FC913F
:1005D0000190F081E02DC7010995F3CF642F0E94AF
:1005E0007A02C801DF91CF911F910F91FF90EF9098
:1005F000DF90CF900895CF93DF931F92CDB7DEB7F2
:100600006983209155012223D1F02091E401203209
:1006100040F021E030E0FC013383228380E090E071
:1006200015C08091E501E82FF0E0EB5CFE4F998169
:1006300090838F5F8093E5018093E40105C061E0C2
:10064000CE0101960E947A0281E090E00F90DF9146
:10065000CF910895CF93FC01C48121E020935501EF
:10066000C09334011092E5011092E4018385682B58
:100670008EE892E00E94FB029091E401913208F032
:1006800045C08091E3018111FCCF82E08093E301BA
:1006900081E08093E2018FEF8093B9011092DB013A
:1006A0009093DA01A5E3B1E0EAEBF1E080E098177E
:1006B00021F02D9121938F5FFACF1092DC01809170
:1006C000DC01CC0FC82BC093DC018091E1018130AB
:1006D00061F41092E1018091DC018093BB00809174
:1006E000BC0083FDF8CF85EC01C085EE8093BC0093
:1006F0008091E3018230E1F38091B9018F3F31F0C5
:100700008091B901803211F08091B9011092E50118
:100710001092E40110925501CF9108950F931F9309
:10072000CF938C01C62F0E942A036C2F6460C801EE
:100730000E942A036C2F6B7FC8010E942A0383EC5E
:1007400090E00197F1F7CF911F910F9108950F93CA
:100750001F93CF93DF938C01C62FD42F607F642B20
:100760000E948E0380E1C89FB00111246D2BC80147
:10077000DF91CF911F910F910C948E0341E00E9465
:10078000A70381E090E00895089580E090E0089547
:100790008F929F92AF92BF92EF92FF920F931F930F
:1007A000CF93DF93CDB7DEB7A1970FB6F894DEBF36
:1007B0000FBECDBF7C01FA01CB0119A2223008F493
:1007C0002AE08E010F5D1F4F822E912CA12CB12C9F
:1007D000BF01A50194010E941D08F901CA01015041
:1007E00011096A3014F4605D01C0695CD8016C9332
:1007F000232B242B252B61F70115110591F0F8010E
:1008000001900020E9F73197AF01401B510BD70150
:10081000ED91FC910280F381E02DB801C7010995AB
:1008200002C080E090E0A1960FB6F894DEBF0FBE44
:10083000CDBFDF91CF911F910F91FF90EF90BF90AF
:10084000AF909F908F9008950E9445081F920F923D
:100850000FB60F9211242F933F938F939F93AF93D3
:10086000BF938091E9019091EA01A091EB01B091D1
:10087000EC013091E80123E0230F2D3720F401969D
:10088000A11DB11D05C026E8230F0296A11DB11DB3
:100890002093E8018093E9019093EA01A093EB0192
:1008A000B093EC018091ED019091EE01A091EF01E8
:1008B000B091F0010196A11DB11D8093ED019093BF
:1008C000EE01A093EF01B093F001BF91AF919F9122
:1008D0008F913F912F910F900FBE0F901F90189501
:1008E0001F920F920FB60F9211242F933F934F93A5
:1008F0005F936F937F938F939F93AF93BF93EF9388
:10090000FF9381EF91E00E94D501FF91EF91BF919C
:10091000AF919F918F917F916F915F914F913F9197
:100920002F910F900FBE0F901F9018951F920F924E
:100930000FB60F9211242F938F939F93EF93FF93F2
:10094000E0910102F09102028081E0910702F091B2
:10095000080282FD12C0908180910A028F5F8F731E
:1009600020910B02821751F0E0910A02F0E0EF5063
:10097000FE4F958F80930A0201C08081FF91EF9115
:100980009F918F912F910F900FBE0F901F901895F0
:100990001F920F920FB60F9211242F933F934F93F4
:1009A0005F936F937F938F939F93AF93BF93EF93D7
:1009B000FF938091B900887F803609F49CC068F568
:1009C000883209F45BC090F4803109F454C038F4E3
:1009D000882309F4F6C0883009F44DC0F6C0883188
:1009E00009F44CC0803209F45DC0EFC0803409F4D2
:1009F00068C048F4803309F455C0883309F0E5C075
:100A00008093B901D8C0803509F44FC0883509F406
:100A10005DC0883409F0D9C0D6C0883909F4C7C090
:100A2000A8F4883709F467C038F4883609F463C03D
:100A3000803709F460C0C9C0883809F4B8C080396B
:100A400009F45FC0803809F0C0C05BC0803B09F486
:100A500086C038F4803A09F466C0883A09F47FC049
:100A6000B4C0803C09F4A7C0883C09F4A4C0883B0A
:100A700009F48AC0AAC08091DC0110C09091DB010A
:100A80008091DA01981770F5E091DB0181E08E0F1B
:100A90008093DB01F0E0E654FE4F80818093BB0041
:100AA00085EC86C08093B9018EC0E091DB0181E0C6
:100AB0008E0F8093DB018091BB00F0E0E654FE4F87
:100AC00080839091DB018091DA016EC0E091DB01BF
:100AD00081E08E0F8093DB018091BB00F0E0E65453
:100AE000FE4F80838091E20181116DC081E080938F
:100AF000E10184EA61C083E08093E3011092B801D0
:100B0000CFCF8091B801803208F051C0E091B80198
:100B100081E08E0F8093B8018091BB00F0E0E85631
:100B2000FE4F8083BDCF85EC8093BC001092E30123
:100B30008091B801803230F4E091B801F0E0E856DD
:100B4000FE4F10826091B80170E0E091DD01F091FC
:100B5000DE0188E991E009951092B80136C084E081
:100B60008093E3011092970110929601E091DF01CA
:100B7000F091E001099580919601811105C081E015
:100B80008093960110927601E091970181E08E0F9B
:100B900080939701F0E0EA58FE4F80818093BB007C
:100BA0009091970180919601981708F479CF85E884
:100BB0008093BC000AC085EC8093BC001092E301D6
:100BC00004C01092B9010E947002FF91EF91BF9191
:100BD000AF919F918F917F916F915F914F913F91D5
:100BE0002F910F900FBE0F901F901895E1EFF1E03D
:100BF0001382128288EE93E0A0E0B0E084839583B4
:100C0000A683B78324E031E03183208325EC30E0F4
:100C10003587248724EC30E03787268720EC30E0C6
:100C2000318B208B21EC30E0338B228B22EC30E0B7
:100C3000358B248B26EC30E0378B268B118E128E71
:100C4000138E148EEEE8F2E0138212828483958371
:100C5000A683B78386E191E091838083EAE9F2E09D
:100C60001382128288E291E0918380838FE38483F0
:100C700080E1818782E0828713860895789484B525
:100C8000826084BD84B5816084BD85B5826085BD88
:100C900085B5816085BD80916E00816080936E0016
:100CA0001092810080918100826080938100809108
:100CB00081008160809381008091800081608093B9
:100CC00080008091B10084608093B1008091B00079
:100CD00081608093B00080917A00846080937A0074
:100CE00080917A00826080937A0080917A0081609E
:100CF00080937A0080917A00806880937A001092C5
:100D0000C1001092E7011092E6011092E5011092E5
:100D1000E4011092E30181E08093E2011092E1018D
:100D200061E082E10E94B60061E083E10E94B600CA
:100D30008091B9008E7F8093B9008091B9008D7F3A
:100D40008093B90088E48093B80085E48093BC0068
:100D50008CE891E09093E0018093DF018DE891E0D1
:100D60009093DE018093DD0110929F028091A40296
:100D7000823018F098E090939F028093A20262E381
:100D800070E080E090E00E9428016091A5028AE96D
:100D900092E00E942A0368EE73E080E090E00E94F7
:100DA000280160E38AE992E00E948E03CBE4D6E456
:100DB000CE010197F1F760E38AE992E00E948E0389
:100DC0002197F1F760E38AE992E00E948E0383E5C0
:100DD00092E00197F1F760E28AE992E00E948E03C7
:100DE00060919F02606240E08AE992E00E94A7035E
:100DF00084E08093A00240E06CE08AE992E00E94E7
:100E0000A70340E061E08AE992E00E94A703CBE3F8
:100E1000DFE1CE010197F1F712E01093A10240E06B
:100E200066E08AE992E00E94A70340E062E08AE976
:100E300092E00E94A7032197F1F788E08093A50232
:100E400060E08AE992E00E942A030E948700E09114
:100E50000102F09102021083E091FD01F091FE0188
:100E60001082E091FF01F09100028FEC80831092DC
:100E70000902E0910502F091060286E08083E0918C
:100E80000302F0910402808180618083E09103027B
:100E9000F0910402808188608083E0910302F091E8
:100EA0000402808180688083E0910302F091040253
:100EB00080818F7D80834DE6E42E40E0F42E0BE3AD
:100EC0001FE10E94A30097FD039695958795959540
:100ED00087954C01092E000CAA08BB0897FF0EC08D
:100EE0006DE281EF91E00E94F70144275527BA0196
:100EF000481959096A097B092AE003C02AE0B501AB
:100F0000A40181EF91E00E94C80342E050E060E359
:100F100071E081EF91E00E9462010E94A30097FDC1
:100F2000039695958795959587954C01092E000C0C
:100F3000AA08BB0897FF0FC041E06DE28AE992E082
:100F40000E94A70344275527BA01481959096A097D
:100F50007B092AE003C02AE0B501A4018AE992E0F6
:100F60000E94C8030E94A30097FD0396EC01D5954B
:100F7000C795D595C7950E948700209711F460E02A
:100F800004C0CF3FD10529F461E085E00E94B6009E
:100F900042C0F70184918330F9F048F48130B9F010
:100FA0008230A1F584B5806284BDC8BD34C087306D
:100FB000E9F0883019F1843049F580918000806231
:100FC00080938000D0938B00C0938A0024C084B5A6
:100FD000806884BDC7BD1FC08091800080688093F9
:100FE0008000D0938900C093880015C08091B00024
:100FF00080688093B000C093B3000DC08091B000B2
:1010000080628093B000C093B40005C0C038D105A1
:101010000CF0BACFB4CF64E670E080E090E00E94BC
:10102000280140E061E08AE992E00E94A703C8013C
:101030000197F1F70E94660244CFA1E21A2EAA1B83
:10104000BB1BFD010DC0AA1FBB1FEE1FFF1FA21778
:10105000B307E407F50720F0A21BB30BE40BF50B75
:10106000661F771F881F991F1A9469F760957095FE
:10107000809590959B01AC01BD01CF010895EE0FC5
:10108000FF1F0590F491E02D099481E090E0F89421
:081090000C944A08F894FFCF0C
:1010980000000000F70162018E014402BF019D01BA
:1010A800B10100000000FB02CE02C503A202C60285
:1010B800B202A30200000000BE036201C503C4031C
:0410C8000D0A00000D
:00000001FF
