:100000000C9462000C948A000C948A000C948A0070
:100010000C948A000C948A000C948A000C948A0038
:100020000C948A000C948A000C948A000C948A0028
:100030000C948A000C948A000C948A000C948A0018
:100040000C9424040C948A000C9494040C946E0474
:100050000C948A000C948A000C948A000C948A00F8
:100060000C94C6040C948A000000000024002700B1
:100070002A000000000023002600290000000000E4
:10008000250028002B0004040404040404040202D4
:100090000202020203030303030301020408102007
:1000A0004080010204081020010204081020000012
:1000B0000008000201000003040700000000000027
:1000C0000000F40511241FBECFEFD8E0DEBFCDBF86
:1000D00011E0A0E0B1E0ECE2F0E102C005900D9289
:1000E000AC33B107D9F722E0ACE3B1E001C01D9217
:1000F000A13BB207E1F710E0C2E6D0E004C02197CF
:10010000FE010E940908C136D107C9F70E943C06CA
:100110000C9414080C940000833081F028F4813092
:1001200099F08230A1F008958730A9F08830B9F0B5
:100130008430D1F4809180008F7D03C08091800055
:100140008F7780938000089584B58F7702C084B53F
:100150008F7D84BD08958091B0008F7703C080911A
:10016000B0008F7D8093B0000895CF93DF93282F48
:1001700030E0F901E255FF4F8491F901E656FF4F57
:10018000D491F901EA57FF4FC491CC2389F0811132
:100190000E948C00EC2FF0E0EE0FFF1FE458FF4FA1
:1001A000A591B4918FB7F894EC91ED2BEC938FBFA0
:1001B000DF91CF910895CF93DF93E4EBF0E084914A
:1001C000E0EAF0E0D491ECE8F0E0C491CC2391F0C7
:1001D00081110E948C00EC2FF0E0EE0FFF1FEE5813
:1001E000FF4FA591B491EC91ED2381E090E021F4D3
:1001F00080E002C080E090E0DF91CF9108953FB7AA
:10020000F8948091F8019091F901A091FA01B091D0
:10021000FB0126B5A89B05C02F3F19F00196A11D33
:10022000B11D3FBFBA2FA92F982F8827820F911D8C
:10023000A11DB11DBC01CD0142E0660F771F881FD3
:10024000991F4A95D1F708958F929F92AF92BF92CE
:10025000CF92DF92EF92FF926B017C010E94FF0030
:100260004B015C01C114D104E104F104F1F00E94DE
:10027000FF00DC01CB0188199909AA09BB09883E56
:100280009340A105B10570F321E0C21AD108E1083D
:10029000F10888EE880E83E0981EA11CB11CC114E1
:1002A000D104E104F10419F7DDCFFF90EF90DF9066
:1002B000CF90BF90AF909F908F900895CF92DF9294
:1002C000EF92FF920F931F93CF93DF936C017A010C
:1002D0008B01C0E0D0E0CE15DF0581F0D8016D9133
:1002E0008D01D601ED91FC910190F081E02DC601C8
:1002F0000995892B11F02196EECF7E01C701DF9180
:10030000CF911F910F91FF90EF90DF90CF900895C4
:1003100008950895FC01538D448D252F30E0842FDE
:1003200090E0821B930B541710F0CF96089501971D
:100330000895FC01918D828D981761F0828DDF0107
:10034000A80FB11D5D968C91928D9F5F9F73928FC8
:1003500090E008958FEF9FEF0895FC01918D828DBD
:10036000981731F0828DE80FF11D858D90E008958A
:100370008FEF9FEF0895FC01918D228D892F90E0E2
:10038000805C9F4F821B91098F73992708958CEF92
:1003900091E00E94BB0121E0892B09F420E0822F2B
:1003A0000895FC01848DDF01A80FB11DA35ABF4F32
:1003B0002C91848D90E001968F739927848FA68964
:1003C000B7892C93A089B1898C91837080648C93B8
:1003D000938D848D981306C00288F389E02D808167
:1003E0008F7D80830895EF92FF920F931F93CF9399
:1003F000DF93EC0181E0888F9B8D8C8D981305C075
:10040000E889F989808185FD26C0F62E0B8D10E0E4
:100410000F5F1F4F0F731127E02E8C8DE8120CC059
:100420000FB607FCFACFE889F989808185FFF5CFFF
:10043000CE010E94D101F1CF8B8DFE01E80FF11D9D
:10044000E35AFF4FF0829FB7F8940B8FEA89FB893C
:10045000808180620AC09FB7F894EE89FF8960832B
:10046000E889F98980818370806480839FBF81E0FF
:1004700090E0DF91CF911F910F91FF90EF90089541
:10048000CF93DF93EC01888D8823C9F0EA89FB893B
:10049000808185FD05C0A889B9898C9186FD0FC032
:1004A0000FB607FCF5CF808185FFF2CFA889B98907
:1004B0008C9185FFEDCFCE010E94D101E7CFDF9176
:1004C000CF91089580E090E0892B29F00E94C70128
:1004D00081110C940000089585ED8093BC008091FB
:1004E000BC0084FDFCCF1092EB01089540919E0169
:1004F000262F30E0240F311D21323105DCF420910C
:10050000EB012430C9F4FC0180E090E0861758F438
:1005100030919E012191DC01A258BE4FA30FB11D65
:100520002C930196F3CF80919E01680F60939E01FA
:1005300080E0089581E0089582E008950895E091B3
:10054000EF018091EE01E81730F4F0E0E25AFE4F3F
:10055000808190E008958FEF9FEF08959091EF01D3
:100560008091EE01981750F4E92FF0E0E25AFE4F27
:10057000208130E09F5F9093EF0102C02FEF3FEFAB
:10058000C90108958091EE0190E02091EF01821B56
:1005900091090895CF92DF92EF92FF920F931F93EC
:1005A000CF93DF937C01CB018A0120915D0122234F
:1005B00089F0EB016B01C40ED51ECC15DD0569F089
:1005C0006991D701ED91FC910190F081E02DC70177
:1005D0000995F3CF642F0E947602C801DF91CF9175
:1005E0001F910F91FF90EF90DF90CF900895CF93E0
:1005F000DF931F92CDB7DEB7698320915D0122237F
:10060000D1F02091EC01203240F021E030E0FC01FB
:100610003383228380E090E015C08091ED01E82FC4
:10062000F0E0E35CFE4F998190838F5F8093ED0152
:100630008093EC0105C061E0CE0101960E94760234
:1006400081E090E00F90DF91CF910895CF93FC016E
:10065000C48121E020935D01C0933C011092ED0123
:100660001092EC018385682B89E992E00E94F702E1
:100670009091EC01913208F045C08091EB0181111D
:10068000FCCF82E08093EB0181E08093EA018FEF61
:100690008093C1011092E3019093E201ADE3B1E0D8
:1006A000E2ECF1E080E0981721F02D9121938F5F2B
:1006B000FACF1092E4018091E401CC0FC82BC093D3
:1006C000E4018091E901813061F41092E9018091A7
:1006D000E4018093BB008091BC0083FDF8CF85ECE2
:1006E00001C085EE8093BC008091EB018230E1F384
:1006F0008091C1018F3F31F08091C101803211F0B2
:100700008091C1011092ED011092EC0110925D01F7
:10071000CF9108950F931F93CF938C01C62F0E9402
:1007200026036C2F6460C8010E9426036C2F6B7F28
:10073000C8010E94260383EC90E00197F1F7CF9166
:100740001F910F9108950F931F93CF93DF938C0107
:10075000C62FD42F607F642B0E948A0380E1C89F3C
:10076000B00111246D2BC801DF91CF911F910F9122
:100770000C948A0341E00E94A30381E090E0089575
:10078000089580E090E008956115710579F0FB010E
:1007900001900020E9F73197AF01461B570BDC01B0
:1007A000ED91FC910280F381E02D099480E090E0CE
:1007B00008958F929F92AF92BF92EF92FF920F9304
:1007C0001F93CF93DF93CDB7DEB7A1970FB6F89401
:1007D000DEBF0FBECDBF7C01FA01CB0119A22230D2
:1007E00008F42AE08E010F5D1F4F822E912CA12C60
:1007F000B12CBF01A50194010E94E707F901CA01CC
:10080000015011096A3014F4605D01C0695CD801BF
:100810006C93232B242B252B61F7B801C7010E9471
:10082000C403A1960FB6F894DEBF0FBECDBFDF9113
:10083000CF911F910F91FF90EF90BF90AF909F903D
:100840008F9008950E940F081F920F920FB60F927B
:1008500011242F933F938F939F93AF93BF938091D6
:10086000F4019091F501A091F601B091F70130915A
:10087000F30123E0230F2D3720F40196A11DB11DB4
:1008800005C026E8230F0296A11DB11D2093F30198
:100890008093F4019093F501A093F601B093F701D2
:1008A0008091F8019091F901A091FA01B091FB01BA
:1008B0000196A11DB11D8093F8019093F901A093B9
:1008C000FA01B093FB01BF91AF919F918F913F913E
:1008D0002F910F900FBE0F901F9018951F920F929F
:1008E0000FB60F9211242F933F934F935F936F9303
:1008F0007F938F939F93AF93BF93EF93FF938CEF6F
:1009000091E00E94D101FF91EF91BF91AF919F9132
:100910008F917F916F915F914F913F912F910F90A8
:100920000FBE0F901F9018951F920F920FB60F9247
:1009300011242F938F939F93EF93FF93E0910C02D9
:10094000F0910D028081E0911202F091130282FD7C
:1009500012C09081809115028F5F8F7320911602D3
:10096000821751F0E0911502F0E0E450FE4F958FB0
:100970008093150201C08081FF91EF919F918F912B
:100980002F910F900FBE0F901F9018951F920F92EE
:100990000FB60F9211242F933F934F935F936F9352
:1009A0007F938F939F93AF93BF93EF93FF93809128
:1009B000B900887F803609F49CC068F5883209F454
:1009C0005BC090F4803109F454C038F4882309F4F2
:1009D000F6C0883009F44DC0F6C0883109F44CC027
:1009E000803209F45DC0EFC0803409F468C048F477
:1009F000803309F455C0883309F0E5C08093C10104
:100A0000D8C0803509F44FC0883509F45DC08834FA
:100A100009F0D9C0D6C0883909F4C7C0A8F488370E
:100A200009F467C038F4883609F463C0803709F4E4
:100A300060C0C9C0883809F4B8C0803909F45FC003
:100A4000803809F0C0C05BC0803B09F486C038F430
:100A5000803A09F466C0883A09F47FC0B4C0803C8B
:100A600009F4A7C0883C09F4A4C0883B09F48AC0F3
:100A7000AAC08091E40110C09091E3018091E2014D
:100A8000981770F5E091E30181E08E0F8093E30108
:100A9000F0E0EE53FE4F80818093BB0085EC86C072
:100AA0008093C1018EC0E091E30181E08E0F8093BD
:100AB000E3018091BB00F0E0EE53FE4F8083909104
:100AC000E3018091E2016EC0E091E30181E08E0FCD
:100AD0008093E3018091BB00F0E0EE53FE4F8083F2
:100AE0008091EA0181116DC081E08093E90184EA7F
:100AF00061C083E08093EB011092C001CFCF809161
:100B0000C001803208F051C0E091C00181E08E0F39
:100B10008093C0018091BB00F0E0E056FE4F8083DF
:100B2000BDCF85EC8093BC001092EB018091C00199
:100B3000803230F4E091C001F0E0E056FE4F1082C8
:100B40006091C00170E0E091E501F091E60180EA7A
:100B500091E009951092C00136C084E08093EB01CA
:100B600010929F0110929E01E091E701F091E8013F
:100B7000099580919E01811105C081E080939E01BD
:100B800010927E01E0919F0181E08E0F80939F0182
:100B9000F0E0E258FE4F80818093BB0090919F016E
:100BA00080919E01981708F479CF85E88093BC0066
:100BB0000AC085EC8093BC001092EB0104C0109237
:100BC000C1010E946C02FF91EF91BF91AF919F9183
:100BD0008F917F916F915F914F913F912F910F90E6
:100BE0000FBE0F901F901895ECEFF1E01382128268
:100BF00088EE93E0A0E0B0E084839583A683B7837A
:100C000024E031E03183208325EC30E035872487F0
:100C100024EC30E03787268720EC30E0318B208BC6
:100C200021EC30E0338B228B22EC30E0358B248BAF
:100C300026EC30E0378B268B118E128E138E148E9D
:100C4000E9E9F2E01382128284839583A683B78355
:100C500086E191E091838083E5EAF2E013821282DB
:100C600088E291E0918380838FE3848380E18187B0
:100C700082E0828713860895789484B5826084BD6B
:100C800084B5816084BD85B5826085BD85B5816090
:100C900085BD80916E00816080936E00109281000E
:100CA00080918100826080938100809181008160C9
:100CB000809381008091800081608093800080918A
:100CC000B10084608093B1008091B0008160809316
:100CD000B00080917A00846080937A0080917A00DD
:100CE000826080937A0080917A00816080937A009C
:100CF00080917A00806880937A001092C1001092EF
:100D0000EF011092EE011092ED011092EC011092A1
:100D1000EB0181E08093EA011092E90182E10E94F7
:100D2000B50083E10E94B5008091B9008E7F809369
:100D3000B9008091B9008D7F8093B90088E48093D9
:100D4000B80085E48093BC0088E891E09093E801C6
:100D50008093E70189E891E09093E6018093E501B3
:100D60001092AA028091AF02823018F098E090931E
:100D7000AA028093AD0262E370E080E090E00E94FE
:100D800024016091B00285EA92E00E94260368EE99
:100D900073E080E090E00E94240160E385EA92E045
:100DA0000E948A03CBE4D6E4CE010197F1F760E319
:100DB00085EA92E00E948A032197F1F760E385EAD1
:100DC00092E00E948A0383E592E00197F1F760E2E6
:100DD00085EA92E00E948A036091AA02606240E084
:100DE00085EA92E00E94A30384E08093AB0240E096
:100DF0006CE085EA92E00E94A30340E061E085EAAE
:100E000092E00E94A303CBE3DFE1CE010197F1F76B
:100E100082E08093AC0240E066E085EA92E00E94C6
:100E2000A30340E062E085EA92E00E94A3032197D9
:100E3000F1F788E08093B00260E085EA92E00E94DA
:100E40002603E0EAF0E02491ECE8F0E084918823C6
:100E5000C1F090E0880F991FFC01E859FF4FC59140
:100E6000D491FC01E458FF4FA591B4919FB7F89439
:100E70008881E22FE0958E2388838C91E823EC9380
:100E80009FBFE0910C02F0910D0282E08083E0911F
:100E90000802F09109021082E0910A02F0910B021F
:100EA0008FEC808310921402E0911002F0911102F5
:100EB00086E08083E0910E02F0910F0280818061D4
:100EC0008083E0910E02F0910F0280818860808320
:100ED000E0910E02F0910F02808180688083E091A2
:100EE0000E02F0910F0280818F7D8083CBE3DFE1E2
:100EF0000E94DB006C01990FEE08FF08F7FE0EC0A0
:100F00006DE28CEF91E00E94F30144275527BA016E
:100F10004C195D096E097F092AE003C02AE0B70178
:100F2000A6018CEF91E00E94D90360E371E08CEFA1
:100F300091E00E94C4030E94DB000197D9F58091E3
:100F4000F201811137C040E061E085EA92E00E9441
:100F5000A303CE010197F1F78091F0019091F10187
:100F600001969093F1018093F00163E371E085EACB
:100F700092E00E94C403C090F001D090F1010D2CCA
:100F8000000CEE08FF08F7FE1EC041E06DE285EAA6
:100F900092E00E94A30344275527BA014C195D092A
:100FA0006E097F092AE085EA92E00E94D90381E078
:100FB0008093F2010E94DB00892B11F41092F20160
:100FC0000E94620295CF2AE0B701A601ECCFA1E210
:100FD0001A2EAA1BBB1BFD010DC0AA1FBB1FEE1FB3
:100FE000FF1FA217B307E407F50720F0A21BB30BFE
:100FF000E40BF50B661F771F881F991F1A9469F77A
:1010000060957095809590959B01AC01BD01CF01D5
:101010000895EE0FFF1F0590F491E02D099481E0F3
:0C10200090E0F8940C941408F894FFCFB2
:10102C0000000000F3015E018A014002BB0199013E
:10103C00AD0100000000F702CA02C1039E02C20209
:10104C00AE029F0200000000BA035E01C103C003A0
:0C105C000D0A00507265737365733A0052
:00000001FF
