:100000000C945D000C9485000C9485000C94850084
:100010000C9485000C9485000C9485000C9485004C
:100020000C9485000C9485000C9485000C9485003C
:100030000C9485000C9485000C9485000C9485002C
:100040000C9423020C9485000C9493020C946D0282
:100050000C9485000C9485000C9485000C9485000C
:100060000C9485000C94850000000008000201003B
:100070000003040700000000000000000000000072
:10008000250028002B0000000000240027002A0083
:10009000040404040404040402020202020203032E
:1000A0000303030301020408102040800102040836
:1000B0001020010204081020F60311241FBECFEF08
:1000C000D8E0DEBFCDBF11E0A0E0B1E0E4EAF8E0A7
:1000D00002C005900D92A631B107D9F721E0A6E143
:1000E000B1E001C01D92AC3BB207E1F710E0CDE5F5
:1000F000D0E004C02197FE010E944504CC35D10711
:10010000C9F70E94C5020C9450040C940000E9EA5F
:10011000F0E02491E5E9F0E08491882399F090E003
:10012000880F991FFC01EA57FF4FA591B491FC017C
:10013000E458FF4F859194918FB7F894EC91E22B9E
:10014000EC938FBF0895EDE6F0E09491E9EAF0E0DA
:100150002491E5E9F0E0E491EE2309F43CC0992311
:1001600039F1933091F038F49130A9F0923001F5E3
:1001700094B59F7D12C0973091F09830A1F09430E3
:10018000B9F4909180009F7D03C0909180009F778B
:10019000909380000DC094B59F7794BD09C0909155
:1001A000B0009F7703C09091B0009F7D9093B00006
:1001B000F0E0EE0FFF1FE458FF4FA591B4919FB7F9
:1001C000F894811104C08C912095282302C0EC91F1
:1001D0002E2B2C939FBF089580E480937C00809108
:1001E0007A00806480937A0080917A0086FDFCCF4B
:1001F000809178002091790090E0922B0895CF9221
:10020000DF92EF92FF920F931F93CF93DF936C01D6
:100210007A018B01C0E0D0E0CE15DF0581F0D80176
:100220006D918D01D601ED91FC910190F081E02D51
:10023000C6010995892B11F02196EECF7E01C701E9
:10024000DF91CF911F910F91FF90EF90DF90CF90B2
:100250000895089580E090E00895FC01538D448D49
:10026000252F30E0842F90E0821B930B541710F061
:10027000CF96089501970895FC01918D828D98176E
:1002800061F0828DDF01A80FB11D5D968C91928D7A
:100290009F5F9F73928F90E008958FEF9FEF089577
:1002A000FC01918D828D981731F0828DE80FF11D40
:1002B000858D90E008958FEF9FEF0895FC01918D5B
:1002C000228D892F90E0805C9F4F821B91098F7354
:1002D000992708958FE191E00E945E0121E0892B2A
:1002E00009F420E0822F0895FC01848DDF01A80F1E
:1002F000B11DA35ABF4F2C91848D90E001968F734E
:100300009927848FA689B7892C93A089B1898C916C
:10031000837080648C93938D848D981306C00288BB
:10032000F389E02D80818F7D80830895EF92FF9285
:100330000F931F93CF93DF93EC0181E0888F9B8D08
:100340008C8D981305C0E889F989808185FD26C0C8
:10035000F62E0B8D10E00F5F1F4F0F731127E02E4D
:100360008C8DE8120CC00FB607FCFACFE889F9892A
:10037000808185FFF5CFCE010E947401F1CF8B8D76
:10038000FE01E80FF11DE35AFF4FF0829FB7F8948A
:100390000B8FEA89FB89808180620AC09FB7F8943D
:1003A000EE89FF896083E889F989808183708064A0
:1003B00080839FBF81E090E0DF91CF911F910F91EB
:1003C000FF90EF900895CF93DF93EC01888D882301
:1003D000C9F0EA89FB89808185FD05C0A889B989B2
:1003E0008C9186FD0FC00FB607FCF5CF808185FF8D
:1003F000F2CFA889B9898C9185FFEDCFCE010E94FB
:100400007401E7CFDF91CF91089580E090E0892BD0
:1004100029F00E946A0181110C9400000895009750
:1004200069F0FC0101900020E9F73197AF01481B0A
:10043000590BBC018FE191E00C94FF0080E090E04B
:1004400008950E944B041F920F920FB60F92112431
:100450002F933F938F939F93AF93BF9380911B01F3
:1004600090911C01A0911D01B0911E0130911A01C3
:1004700023E0230F2D3720F40196A11DB11D05C0E7
:1004800026E8230F0296A11DB11D20931A01809327
:100490001B0190931C01A0931D01B0931E0180913C
:1004A000160190911701A0911801B09119010196C0
:1004B000A11DB11D8093160190931701A0931801FF
:1004C000B0931901BF91AF919F918F913F912F915F
:1004D0000F900FBE0F901F9018951F920F920FB69E
:1004E0000F9211242F933F934F935F936F937F93BA
:1004F0008F939F93AF93BF93EF93FF938FE191E01F
:100500000E947401FF91EF91BF91AF919F918F91E4
:100510007F916F915F914F913F912F910F900FBEFF
:100520000F901F9018951F920F920FB60F921124E3
:100530002F938F939F93EF93FF93E0912F01F0916F
:1005400030018081E0913501F091360182FD12C0C9
:100550009081809138018F5F8F73209139018217CC
:1005600051F0E0913801F0E0E15EFE4F958F80930D
:10057000380101C08081FF91EF919F918F912F9160
:100580000F900FBE0F901F901895CF93DF93CDB7AC
:10059000DEB7A1970FB6F894DEBF0FBECDBF78943B
:1005A00084B5826084BD84B5816084BD85B5826078
:1005B00085BD85B5816085BD80916E008160809329
:1005C0006E00109281008091810082608093810092
:1005D00080918100816080938100809180008160A2
:1005E000809380008091B10084608093B1008091FD
:1005F000B00081608093B00080917A008460809325
:100600007A0080917A00826080937A0080917A00EB
:10061000816080937A0080917A00806880937A006C
:100620001092C1000E948700E0912F01F0913001EB
:1006300082E08083E0912B01F0912C011082E09107
:100640002D01F0912E018FEC808310923701E09103
:100650003301F091340186E08083E0913101F09123
:100660003201808180618083E0913101F09132011B
:10067000808188608083E0913101F0913201808136
:1006800080688083E0913101F091320180818F7D1B
:1006900080839AE0492E512C612C712C2DE6A22EDC
:1006A00020E0B22E0E94EC006C01990FEE08FF08CA
:1006B000F7FE20C06DE28FE191E00E9496012227B3
:1006C0003327A9012C193D094E095F0919A28E0192
:1006D0000F5D1F4FCA01B901A30192010E942304BB
:1006E000605DF80162938F012115310541055105C7
:1006F00089F715C0A701960119A28E010F5D1F4F42
:10070000CA01B901A30192010E942304605DF801AE
:1007100062938F01211531054105510589F7C80103
:100720000E940F0242E050E062E171E08FE191E04F
:100730000E94FF000E94EC0097FD03968C01159526
:100740000795159507950E9487000115110511F46D
:1007500080E004C00F3F110521F481E00E94A30056
:1007600042C0F50184918330F9F048F48130B9F04A
:100770008230A1F584B5806284BD08BD34C0873065
:10078000E9F0883019F1843049F580918000806269
:100790008093800010938B0000938A0024C084B55E
:1007A000806884BD07BD1FC08091800080688093F1
:1007B0008000109389000093880015C08091B000DC
:1007C00080688093B0000093B3000DC08091B000AA
:1007D00080628093B0000093B40005C0003811051A
:1007E0000CF0BBCFB5CF0E9405025CCFEFE1F1E08A
:1007F0001382128288EE93E0A0E0B0E084839583B8
:10080000A683B78384E091E09183808385EC90E0B8
:100810009587848784EC90E09787868780EC90E0CA
:10082000918B808B81EC90E0938B828B82EC90E0BB
:10083000958B848B86EC90E0978B868B118E128E35
:10084000138E148E0895A1E21A2EAA1BBB1BFD0164
:100850000DC0AA1FBB1FEE1FFF1FA217B307E4079F
:10086000F50720F0A21BB30BE40BF50B661F771FF7
:10087000881F991F1A9469F76095709580959095D7
:100880009B01AC01BD01CF010895EE0FFF1F059044
:10089000F491E02D099481E090E0F8940C945004D8
:0408A000F894FFCFFA
:1008A400000000009601FF002D01E3015E013C0100
:0608B40050010D0A0000D6
:00000001FF
